:020000040800F2
:10000000005000208D110008951000089B1000087A
:10001000A1100008A7100008AD10000800000000A3
:10002000000000000000000000000000B310000805
:10003000BF10000800000000CB100008D710000817
:10004000D5110008D5110008D5110008D5110008F8
:10005000D5110008D5110008D5110008D5110008E8
:10006000E3100008F1100008D5110008D5110008B0
:10007000D5110008D5110008D5110008D5110008C8
:10008000D5110008D5110008D5110008D5110008B8
:10009000D5110008D5110008D5110008D5110008A8
:1000A000D5110008D5110008D5110008D511000898
:1000B000D5110008D5110008D5110008D511000888
:1000C000D5110008D5110008D5110008D511000878
:1000D000D511000801110008D5110008D51100083C
:1000E000D5110008D5110008D51100080000000046
:1000F0000000000000000000000000000000000000
:0C01000000000000000000005FF808F1A3
:10010C0010B5054C237833B9044B13B10448AFF345
:10011C0000800123237010BD94000020000000001B
:10012C007C45000808B5034B1BB103490348AFF3EA
:10013C00008008BD00000000980000207C450008ED
:10014C0010F8012B11F8013B012A28BF9A42F7D075
:10015C00D01A7047034613F8012B002AFBD1181A4A
:10016C000138704780B582B000AF78600E4B1B68C9
:10017C0000225A620C4B1B684FF6FF72DA620A4B74
:10018C004FF6FF72DA60084802F0E4FC00BF064B41
:10019C001B685A6A7B689A42F9D3034802F024FD23
:1001AC0000BF0837BD4680BD0C01002080B586B06D
:1001BC0000AF78600B467B8007F1080300221A60C1
:1001CC005A609A60DA607B88BB600123FB60022373
:1001DC007B6107F108031946786801F03BFA00BF10
:1001EC001837BD4680BD80B586B000AF78600B4631
:1001FC007B8007F1080300221A605A609A60DA606B
:10020C007B88BB600023FB6000233B6107F1080384
:10021C001946786801F01EFA00BF1837BD4680BD3C
:10022C0080B500AF02211148FFF7C0FF0122022167
:10023C000E4801F0AAFB0A2001F02AF80022022144
:10024C000A4801F0A2FB44F25060FFF78BFF012239
:10025C000221064801F099FB1E20FFF783FF0221C3
:10026C000248FFF7C0FF00BF80BD00BF000801407F
:10027C0080B582B000AF0023FB712820FFF772FF1E
:10028C000221114801F06AFB0346002B0ED15020CD
:10029C00FFF768FF02210C4801F060FB0346002BBE
:1002AC0002D00123FB7101E0FF23FB7100BF02218F
:1002BC00054801F053FB0346002BF8D1FB79184697
:1002CC000837BD4680BD00BF0008014080B582B034
:1002DC0000AF0023BB7137E000BF02211E4801F0C4
:1002EC003DFB0346002BF8D02820FFF73BFF0221F3
:1002FC00194801F033FB0346002B0ED1BB79C3F137
:10030C000703012202FA03F35BB2DB435AB297F9FB
:10031C00073013405BB2FB710BE0BB79C3F10703F1
:10032C00012202FA03F35AB297F9073013435BB276
:10033C00FB7100BF0221084801F010FB0346002BA3
:10034C00F8D1BB790133BB71BB79072BC4D9FB79CD
:10035C0018460837BD4680BD0008014080B582B004
:10036C0000AF7860FFF75CFFFFF782FF03461A4689
:10037C001F4B1A70FFF7AAFF03461A461D4B1A7043
:10038C00FFF7A4FF03461A461B4B1A70FFF79EFF9C
:10039C0003461A46194B1A70FFF798FF03461A4684
:1003AC00174B1A70FFF792FF03469AB2154B1A803F
:1003BC00144B1B8819460F4B1B781A460E4B1B7897
:1003CC0013440E4A127813440D4A1278134499427E
:1003DC0009D10A4B1B781A467B681A60054B1B78AF
:1003EC001A467B685A6000BF0837BD4680BD00BF07
:1003FC00B6000020B0000020B1000020B2000020A8
:10040C00B3000020B400002080B586B002AF0346D4
:10041C00FB71FB7923F00F03FB73FB791B01BB739F
:10042C00FB7B43F00C03DBB23B72FB7B43F008031A
:10043C00DBB27B72BB7B43F00C03DBB2BB72BB7BCE
:10044C0043F00803DBB2FB7207F10802642300934C
:10045C0004234E21034801F00DFC00BF1037BD46AC
:10046C0080BD00BFB800002080B586B002AF034647
:10047C00FB71FB7923F00F03FB73FB791B01BB733F
:10048C00FB7B43F00D03DBB23B72FB7B43F00903B8
:10049C00DBB27B72BB7B43F00D03DBB2BB72BB7B6D
:1004AC0043F00903DBB2FB7207F1080264230093EB
:1004BC0004234E21034801F0DDFB00BF1037BD467D
:1004CC0080BD00BFB800002080B582B000AF802096
:1004DC00FFF79AFF00237B6005E02020FFF7C4FFA5
:1004EC007B6801337B607B68452BF6DD00BF00BF6A
:1004FC000837BD4680BD80B582B000AF78603960EA
:10050C007B68002B03D07B68012B05D009E03B688E
:10051C0043F080033B6004E03B6843F0C0033B6066
:10052C0000BF3B68DBB21846FFF76EFF00BF083711
:10053C00BD4680BD80B500AF322000F0A9FE302052
:10054C00FFF762FF052000F0A3FE3020FFF75CFFF1
:10055C00012000F09DFE3020FFF756FF0A2000F02E
:10056C0097FE2020FFF750FF0A2000F091FE282074
:10057C00FFF74AFF012000F08BFE0820FFF744FF35
:10058C00012000F085FE0120FFF73EFF012000F066
:10059C007FFE012000F07CFE0620FFF735FF0120D6
:1005AC0000F076FE0C20FFF72FFF00BF80BD80B55A
:1005BC0082B000AF786006E07B685A1C7A601B78CA
:1005CC001846FFF751FF7B681B78002BF4D100BF56
:1005DC0000BF0837BD4680BD80B500AF00F0F6FD0A
:1005EC0000F062F800F04AF900F0A4F800F0D0F83E
:1005FC0000F01AF9FFF79EFF12222549254802F058
:10060C0012FE00F03BFE03461A46234B1A60224BA7
:10061C001B68224A82FB03121A44D111DA178A1A78
:10062C008C2101FB02F29A1A002A01D100F0E4FBA2
:10063C0000F024FE03461A46174B1A60164B1B6833
:10064C00174A82FB03121A44D111DA178A1ABE21F7
:10065C0001FB02F29A1A002A01D100F0F7FB00F01C
:10066C000DFE03461A460C4B1A600B4B1B680D4AC9
:10067C0012684FF47A7101FB02F293FBF2F101FB69
:10068C0002F29B1A002BBCD100F0CAFBB9E700BFE9
:10069C000200002054010020BC010020EBA00EEA57
:1006AC00859176AC1400002080B590B000AF07F1B6
:1006BC00180328220021184603F03EFA3B1D0022A5
:1006CC001A605A609A60DA601A610123BB614FF4B8
:1006DC008033FB6100233B620123BB6202237B63FB
:1006EC004FF48033BB634FF4E013FB6307F1180343
:1006FC00184601F0C5FD0346002B01D000F0DEFBCF
:10070C000F237B600223BB600023FB604FF48063EC
:10071C003B6100237B613B1D0221184602F032F83D
:10072C000346002B01D000F0C9FB00BF4037BD468B
:10073C0080BD000080B500AF124B134A1A60114BFC
:10074C00124A5A600F4B00229A600E4B0022DA605C
:10075C000C4B4FF480421A610A4B00225A61094B30
:10076C0000229A61074B0022DA61064B00221A62C2
:10077C00044801F03BF90346002B01D000F09EFB2E
:10078C0000BF80BDB800002000540040A0860100CE
:10079C0080B586B000AF07F1080300221A605A60DA
:1007AC009A60DA603B4600221A605A601D4B4FF08B
:1007BC0080421A601B4B47225A601A4B00229A60E7
:1007CC00184B4FF6FF72DA60164B00221A61154B6C
:1007DC0000229A61134802F06DF90346002B01D0F8
:1007EC0000F06CFB4FF48053BB6007F10803194613
:1007FC000C4802F01FFA0346002B01D000F05EFB00
:10080C0000233B6000237B603B461946054802F001
:10081C00CDFB0346002B01D000F050FB00BF183776
:10082C00BD4680BD0C01002080B500AF114B124AB3
:10083C001A60104B4FF4E1325A600E4B00229A6052
:10084C000C4B0022DA600B4B00221A61094B0C2274
:10085C005A61084B00229A61064B0022DA61054866
:10086C0002F002FC0346002B01D000F027FB00BF76
:10087C0080BD00BF540100200038014080B588B015
:10088C0000AF07F1100300221A605A609A60DA6018
:10089C002B4B9B692A4A43F020039361284B9B699D
:1008AC0003F02003FB60FB68254B9B69244A43F053
:1008BC0004039361224B9B6903F00403BB60BB6888
:1008CC001F4B9B691E4A43F0080393611C4B9B69A9
:1008DC0003F008037B607B6801220221194801F0B8
:1008EC0054F802233B6101237B610023BB6102238B
:1008FC00FB6107F110031946124800F0ABFE0C2304
:10090C003B61114B7B610123BB6107F1100319465D
:10091C000C4800F09FFE00220121082000F0B3FDDE
:10092C00082000F0CCFD00220121092000F0ABFDD5
:10093C00092000F0C4FD00BF2037BD4680BD00BFBC
:10094C0000100240000801400000211080B582B068
:10095C0000AF0346FB80FB88042B1DD100F08EFCFE
:10096C0003461A46204B1A601F4B1A681F4B1B6814
:10097C00D31AB3F5967F0BDD1D4B1B68012B07D1EA
:10098C001C4B1B6801331B4A13601B4B01221A6062
:10099C00154B1B68154A1360FB88082B1CD100F003
:1009AC006DFC03461A46104B1A600F4B1A680F4B1E
:1009BC001B68D31AB3F5967F0ADD0D4B1B68012B10
:1009CC0003D10B4B02221A6002E0094B01221A6080
:1009DC00054B1B68054A1360084AFB88536100BF2E
:1009EC000837BD4680BD00BFB4010020B80100200F
:1009FC001800002014000020C00100200004014059
:100A0C0080B582B000AF786012220F490F4802F017
:100A1C000AFC14220E490F4803F0B6F80A48FFF7F7
:100A2C0099FB0346023B1A4607490A4803F0ACF807
:100A3C0014220749084803F0A7F8084B01221A6052
:100A4C0000BF0837BD4680BD0200002054010020C5
:100A5C00944500089801002000000020C0010020EF
:100A6C0080B586B000AF78601F4B1B68012B09D195
:100A7C00786803F033F878617B69002B02DD1B4A40
:100A8C007B691360184B1B68022B25D118497868B9
:100A9C00FFF756FB386117497868FFF751FBF86090
:100AAC003B69002B0AD1FB68002B07D0124B0122AB
:100ABC001A6014221149786803F066F83B69002B20
:100ACC000AD0FB68002B07D10B4B02221A601422B0
:100ADC000A49786803F058F8094B01221A6000BFE4
:100AEC001837BD4680BD00BF180000201400002040
:100AFC0098450008A44500081C00002094450008F7
:100B0C002000002080B58AB000AF3B4683E803008C
:100B1C0000210020FFF7EFFC07F11803244A92E8AC
:100B2C00030018600433198002330A0C1A7007F1A1
:100B3C00180306331F491A460B4603CB106051604D
:100B4C001D4B1A6807F118030D331C49184602F0A7
:100B5C00FBFF07F118031846FFF729FD00210120C0
:100B6C00FFF7C9FC07F10803154A1A603A6807F148
:100B7C00080303331149184602F0E6FF07F1080396
:100B8C000533104A1068186012791A717A6807F1E7
:100B9C00080309330949184602F0D6FF07F1080388
:100BAC001846FFF704FD00BF2837BD4680BD00BFC7
:100BBC00AC450008B445000814000020BC450008F2
:100BCC004E443A00C045000880B584B000AF786050
:100BDC003960FFF779FC00210020FFF78CFC1B48E3
:100BEC00FFF7E5FC3B68012B14D100210120FFF736
:100BFC0082FC07F10803164A1A6007F10803033355
:100C0C007A681449184602F09FFF07F1080318464A
:100C1C00FFF7CDFC3B68022B14D100210120FFF71C
:100C2C006AFC07F108030C4A1A6007F10803033346
:100C3C007A680849184602F087FF07F1080318463E
:100C4C00FFF7B5FC00BF1037BD4680BDC845000896
:100C5C004E443A00BC45000844413A0080B584B08B
:100C6C0000AF184B1B68012B27D100210020FFF788
:100C7C0042FC1548FFF79BFC144B1B68092B03DC4B
:100C8C00124B1B68012B02DC104B02221A6006214E
:100C9C000020FFF730FC3B1D0D4A92E8030083E86F
:100CAC0003000A4B1A683B1D07330A49184602F029
:100CBC004BFF3B1D1846FFF77AFC00BF1037BD46B3
:100CCC0080BD00BF18000020AC45000814000020B7
:100CDC00B4450008BC45000880B58EB000AF3D4B54
:100CEC001B68012B2CD107F120033B4A07CA03C315
:100CFC001A803A4B1A6807F1200309333849184611
:100D0C0002F022FF07F120030B3336491A460B463B
:100D1C0003CB10605160314B5A6807F1200312333A
:100D2C002F49184602F010FF07F1200314330A2252
:100D3C001A8007F12001C82315222B4802F0E1F993
:100D4C00244B1B68022B41D1284B1B68012B1DD156
:100D5C0007F11003204A07CA03C31A801F4B1A68F5
:100D6C0007F1100309331E49184602F0EDFE07F196
:100D7C0010030B331E491A460B461B88138007F1D0
:100D8C00100164230C22184802F0BBF9174B1B68A6
:100D9C00022B1BD13B1D174A92E803001860043349
:100DAC00198002330A0C1A700C4B5A683B1D06331F
:100DBC000B49184602F0C8FE3B1D08330A221A8064
:100DCC00391D64230922084802F09BF900BF38370B
:100DDC00BD4680BD18000020D0450008AC010020A5
:100DEC00BC450008DC450008540100201C00002014
:100DFC00E4450008E845000880B500AF064B1B68C9
:100E0C00012B07D10548FFF72BFEFFF727FF024BFD
:100E1C0000221A6000BF80BDC00100209801002094
:100E2C0080B500AF074B1B68012B09D10648FFF7B3
:100E3C0095FA054B93E80300FFF764FEFFF74CFFB0
:100E4C0000BF80BD18000020AC01002080B500AFB1
:100E5C00164B1B68022B26D1154B1B68012B22D17C
:100E6C001448FFF77BFAFFF737FF134B1B68012B76
:100E7C000AD1104B1B68104A126811461846FFF72E
:100E8C00A3FE0B4B00221A600B4B1B68022B0AD1E2
:100E9C00084B5B68084A126811461846FFF794FE27
:100EAC00034B00221A6000BF80BD00BF1800002059
:100EBC0020000020AC0100201C00002080B400AFFA
:100ECC0072B600BFFEE7000080B485B000AF154BD2
:100EDC009B69144A43F001039361124B9B6903F025
:100EEC000103BB60BB680F4BDB690E4A43F08053B8
:100EFC00D3610C4BDB6903F080537B607B680A4B3E
:100F0C005B68FB60FB6823F0E063FB60FB6843F00D
:100F1C000073FB60044AFB68536000BF1437BD4686
:100F2C0080BC7047001002400000014080B588B0C2
:100F3C0000AF786007F1100300221A605A609A60C3
:100F4C00DA607B681B68154A934223D1144B9B696A
:100F5C00134A43F008039361114B9B6903F0080398
:100F6C00FB60FB68C0233B6112237B610323FB61A5
:100F7C0007F1100319460B4800F06CFB084BDB69BA
:100F8C00074A43F40013D361054BDB6903F40013E8
:100F9C00BB60BB6800BF2037BD4680BD005400401D
:100FAC0000100240000C014080B485B000AF7860A6
:100FBC007B681B68B3F1804F0BD1084BDB69074A88
:100FCC0043F00103D361054BDB6903F00103FB60C4
:100FDC00FB6800BF1437BD4680BC70470010024050
:100FEC0080B588B000AF786007F1100300221A605A
:100FFC005A609A60DA607B681B68204A934239D148
:10100C001F4B9B691E4A43F4804393611C4B9B69A5
:10101C0003F48043FB60FB68194B9B69184A43F04F
:10102C0004039361164B9B6903F00403BB60BB681C
:10103C004FF400733B6102237B610323FB6107F1D7
:10104C00100319460F4800F005FB4FF480633B6119
:10105C0000237B610023BB6107F11003194609488B
:10106C0000F0F8FA00220021252000F00CFA2520CF
:10107C0000F025FA00BF2037BD4680BD0038014086
:10108C00001002400008014080B400AFFEE780B4BD
:10109C0000AFFEE780B400AFFEE780B400AFFEE720
:1010AC0080B400AFFEE780B400AF00BFBD4680BC8B
:1010BC00704780B400AF00BFBD4680BC704780B4A1
:1010CC0000AF00BFBD4680BC704780B500AF00F0DC
:1010DC00C3F800BF80BD80B500AF042000F06EFCEB
:1010EC0000BF80BD80B500AF082000F067FC00BFDA
:1010FC0080BD000080B500AF024802F0C5F800BF0B
:10110C0080BD00BF5401002080B586B000AF786070
:10111C00144A154BD31A7B617B693B61134B1B68DB
:10112C00002B02D1114B124A1A60104B1A687B68C3
:10113C0013443A699A4207D202F0D4FC03460C22BB
:10114C001A604FF0FF3309E0084B1B68FB60074B3C
:10115C001A687B681344054A1360FB6818461837F5
:10116C00BD4680BD0050002000040000C4010020DA
:10117C00E001002080B400AF00BFBD4680BC7047CA
:10118C000C480D490D4A002302E0D458C4500433D6
:10119C00C4188C42F9D30A4A0A4C002301E01360AC
:1011AC000432A242FBD3FFF7E5FF02F0A1FCFFF7EC
:1011BC0013FA7047000000209400002054470008E8
:1011CC0094000020DC010020FEE7000080B500AF99
:1011DC00084B1B68074A43F010031360032000F010
:1011EC0047F90F2000F008F8FFF76EFE00231846B1
:1011FC0080BD00BF0020024080B582B000AF786097
:10120C00124B1A68124B1B7819464FF47A73B3FBC6
:10121C00F1F3B2FBF3F3184600F05FF90346002B31
:10122C0001D001230EE07B680F2B0AD800227968CD
:10123C004FF0FF3000F027F9064A7B68136000235B
:10124C0000E0012318460837BD4680BD240000206D
:10125C002C0000202800002080B400AF054B1B7828
:10126C001A46054B1B681344034A136000BFBD4666
:10127C0080BC70472C000020C801002080B400AF57
:10128C00024B1B681846BD4680BC7047C801002045
:10129C0080B584B000AF7860FFF7F0FFB8607B6872
:1012AC00FB60FB68B3F1FF3F05D00A4B1B781A4675
:1012BC00FB681344FB6000BFFFF7E0FF0246BB680E
:1012CC00D31AFA689A42F7D800BF00BF1037BD4650
:1012DC0080BD00BF2C00002080B485B000AF7860CA
:1012EC007B6803F00703FB600C4BDB68BB60BA68E0
:1012FC004FF6FF031340BB60FB681A02BB68134335
:10130C0043F0BF6343F40033BB60044ABB68D36053
:10131C0000BF1437BD4680BC704700BF00ED00E035
:10132C0080B400AF044BDB681B0A03F007031846BC
:10133C00BD4680BC704700BF00ED00E080B483B0B8
:10134C0000AF0346FB7197F90730002B0BDBFB79E1
:10135C0003F01F02064997F907305B09012000FAD8
:10136C0002F241F8232000BF0C37BD4680BC704709
:10137C0000E100E080B483B000AF03463960FB713C
:10138C0097F90730002B0ADB3B68DAB20C4997F966
:10139C0007301201D2B20B4483F800230AE03B68F9
:1013AC00DAB20849FB7903F00F03043B1201D2B205
:1013BC000B441A7600BF0C37BD4680BC704700BF8B
:1013CC0000E100E000ED00E080B489B000AFF8600F
:1013DC00B9607A60FB6803F00703FB61FB69C3F13A
:1013EC000703042B28BF0423BB61FB690433062BC2
:1013FC0002D9FB69033B00E000237B614FF0FF3215
:10140C00BB6902FA03F3DA43BB681A407B699A4062
:10141C004FF0FF317B6901FA03F3D9437B680B4032
:10142C00134318462437BD4680BC704780B582B044
:10143C0000AF78607B68013BB3F1807F01D301235F
:10144C000FE00A4A7B68013B53600F214FF0FF30DD
:10145C00FFF790FF054B00229A60044B07221A609D
:10146C00002318460837BD4680BD00BF10E000E0E1
:10147C0080B582B000AF78607868FFF72DFF00BFB1
:10148C000837BD4680BD80B586B000AF0346B96055
:10149C007A60FB7300237B61FFF742FF78617A6807
:1014AC00B9687869FFF790FF024697F90F3011463B
:1014BC001846FFF75FFF00BF1837BD4680BD80B5EB
:1014CC0082B000AF0346FB7197F907301846FFF75F
:1014DC0035FF00BF0837BD4680BD80B582B000AF78
:1014EC0078607868FFF7A2FF034618460837BD46B8
:1014FC0080BD80B485B000AF78600023FB737B683F
:10150C0093F82130022B08D07B6804229A637B6805
:10151C00002283F82020012320E07B681B681A68D6
:10152C007B681B6822F00E021A607B681B681A68C5
:10153C007B681B6822F001021A607B681A6C7B685E
:10154C00DB6B012101FA02F25A607B68012283F8FD
:10155C0021207B68002283F82020FB7B184614375F
:10156C00BD4680BC7047000080B584B000AF786089
:10157C000023FB737B6893F82130022B05D07B682A
:10158C0004229A630123FB7351E07B681B681A6881
:10159C007B681B6822F00E021A607B681B681A6855
:1015AC007B681B6822F001021A607B681B68224A68
:1015BC00934229D07B681B68204A934222D07B68D7
:1015CC001B681F4A93421AD07B681B681D4A9342C2
:1015DC0012D07B681B681C4A93420AD07B681B683C
:1015EC001A4A934202D14FF480130EE04FF08073ED
:1015FC000BE04FF4803308E04FF4805305E04FF4D8
:10160C00807302E0102300E00123114A53607B68D1
:10161C00012283F821207B68002283F820207B683C
:10162C005B6B002B03D07B685B6B78689847FB7B0C
:10163C0018461037BD4680BD080002401C00024011
:10164C003000024044000240580002406C0002404E
:10165C000000024080B48BB000AF7860396000238A
:10166C007B6200233B6269E101227B6A02FA03F38D
:10167C00FB613B681B68FA691340BB61BA69FB6983
:10168C009A4240F058813B685B689A4A93425ED01C
:10169C00984A934275D8984A934258D0964A9342A6
:1016AC006FD8964A934252D0944A934269D8944A3E
:1016BC0093424CD0924A934263D8924A934246D07A
:1016CC00904A93425DD8122B2AD8122B59D801A2DA
:1016DC0052F823F05B17000835170008471700086D
:1016EC00891700088F1700088F1700088F1700083C
:1016FC008F1700088F1700088F1700088F17000826
:10170C008F1700088F1700088F1700088F17000815
:10171C008F1700088F1700083D1700085117000895
:10172C00794A934213D02CE03B68DB683B6229E09A
:10173C003B68DB6804333B6224E03B68DB680833BE
:10174C003B621FE03B68DB680C333B621AE03B6892
:10175C009B68002B02D104233B6213E03B689B681F
:10176C00012B05D108233B627B68FA691A6109E0F9
:10177C0008233B627B68FA695A6103E000233B62F1
:10178C0000E000BFBB69FF2B01D87B6801E07B68E0
:10179C0004337B61BB69FF2B02D87B6A9B0002E0A0
:1017AC007B6A083B9B003B617B691A680F213B6994
:1017BC0001FA03F3DB431A40396A3B6901FA03F37C
:1017CC001A437B691A603B685B6803F08053002BFB
:1017DC0000F0B1804D4B9B694C4A43F0010393617F
:1017EC004A4B9B6903F00103BB60BB68484A7B6AA8
:1017FC009B08023352F82330FB607B6A03F003032F
:10180C009B000F2202FA03F3DB43FA681340FB60E0
:10181C007B68404A934213D07B683F4A93420DD079
:10182C007B683E4A934207D07B683D4A934201D184
:10183C00032306E0042304E0022302E0012300E07A
:10184C0000237A6A02F0030292009340FA68134371
:10185C00FB602F497B6A9B080233FA6841F823200E
:10186C003B685B6803F48033002B06D02D4B1A6861
:10187C002C49BB6913430B6006E02A4B1A68BB6901
:10188C00DB43284913400B603B685B6803F400336F
:10189C00002B06D0234B5A682249BB6913434B607B
:1018AC0006E0204B5A68BB69DB431E4913404B6072
:1018BC003B685B6803F48013002B06D0194B9A68C5
:1018CC001849BB6913438B6006E0164B9A68BB69D9
:1018DC00DB43144913408B603B685B6803F40013D3
:1018EC00002B21D00F4BDA680E49BB691343CB6038
:1018FC0021E000BF00003210000031100000221067
:10190C000000211000001210000011100010024005
:10191C000000014000080140000C01400010014093
:10192C0000140140000401400B4BDA68BB69DB4337
:10193C0009491340CB607B6A01337B623B681A68B0
:10194C007B6A22FA03F3002B7FF48EAE00BF00BF3C
:10195C002C37BD4680BC70470004014080B485B074
:10196C0000AF78600B467B807B689A687B8813405D
:10197C00002B02D00123FB7301E00023FB73FB7BE4
:10198C0018461437BD4680BC704780B483B000AF96
:10199C0078600B467B8013467B707B78002B03D0E2
:1019AC007A887B681A6103E07B881A047B681A6169
:1019BC0000BF0C37BD4680BC7047000080B582B0BC
:1019CC0000AF0346FB80084B5A69FB881340002B81
:1019DC0006D0054AFB885361FB881846FEF7B6FF14
:1019EC0000BF0837BD4680BD0004014080B584B0FF
:1019FC0000AF78607B68002B01D101232BE17B6861
:101A0C0093F83D30DBB2002B06D17B68002283F8C3
:101A1C003C207868FFF78AFA7B68242283F83D2003
:101A2C007B681B681A687B681B6822F001021A60CD
:101A3C007B681B681A687B681B6842F400421A605A
:101A4C007B681B681A687B681B6822F400421A606A
:101A5C0000F0EAFFF8607B685B68814A934207D824
:101A6C00FB68804A934294BF01230023DBB206E05B
:101A7C00FB687D4A934294BF01230023DBB2002B09
:101A8C0001D00123E7E0FB68784AA2FB03239B0CFF
:101A9C00BB607B681B685B6823F03F017B681B683D
:101AAC00BA680A435A607B681B681B6A23F03F01C3
:101ABC007B685B686A4A934202D8BB68013309E0D1
:101ACC00BB684FF4967202FB03F3694AA2FB032333
:101ADC009B0901337A6812680B4313627B681B689D
:101AEC00DB6923F44F4222F0FF027B685B685C49A0
:101AFC008B4219D8FB68591E7B685B685B00B1FB95
:101B0C00F3F3591C40F6FC730B40002B0AD0FB6816
:101B1C00591E7B685B685B00B1FBF3F30133C3F3C5
:101B2C000B0351E004234FE07B689B68002B11D121
:101B3C00FB68581E7B6859680B465B000B44B0FB76
:101B4C00F3F30133C3F30B03002B0CBF012300236E
:101B5C00DBB212E0FB68581E7B6859680B469B0091
:101B6C000B4499000B44B0FBF3F30133C3F30B03A9
:101B7C00002B0CBF01230023DBB2002B01D001236F
:101B8C0022E07B689B68002B0ED1FB68581E7B689B
:101B9C0059680B465B000B44B0FBF3F30133C3F302
:101BAC000B0343F400430FE0FB68581E7B68596835
:101BBC000B469B000B4499000B44B0FBF3F3013331
:101BCC00C3F30B0343F44043796809681343CB61B7
:101BDC007B681B681B6823F0C0017B68DA697B6833
:101BEC001B6A1A437B681B680A431A607B681B6874
:101BFC009B6823F4034323F0FF037A6811697A6826
:101C0C00D26811437A6812680B4393607B681B6837
:101C1C00DB6823F0FF017B685A697B689B691A4378
:101C2C007B681B680A43DA607B681B681A687B68F0
:101C3C001B6842F001021A607B6800221A647B6800
:101C4C00202283F83D207B6800221A637B680022E7
:101C5C0083F83E20002318461037BD4680BD00BFD8
:101C6C00A08601007F841E00FF083D0083DE1B431D
:101C7C00D34D621080B588B002AFF8607A601A4616
:101C8C000B467B8113463B81FFF7F8FA7861FB68C2
:101C9C0093F83D30DBB2202B40F0E0807B69009361
:101CAC00192301227049F86800F064F90346002BEF
:101CBC0001D00223D3E0FB6893F83C30012B01D117
:101CCC000223CCE0FB68012283F83C20FB681B68F4
:101CDC001B6803F00103012B07D0FB681B681A6813
:101CEC00FB681B6842F001021A60FB681B681A68EB
:101CFC00FB681B6822F400621A60FB68212283F8DF
:101D0C003D20FB68102283F83E20FB6800221A64F9
:101D1C00FB687A685A62FB683A895A85FB685B8D66
:101D2C009AB2FB681A85FB68504ADA6279897B693A
:101D3C003A6AF86800F09CF80346002B01D00123A6
:101D4C008DE000233B61FB681B685B693B61FB68B2
:101D5C001B689B693B613B6966E07A69396AF86884
:101D6C0000F0DEF90346002B0DD0FB681B6C042B36
:101D7C0007D1FB681B681A68FB681B6842F4007289
:101D8C001A6001236BE0FB685B6A1A78FB681B68BE
:101D9C001A61FB685B6A5A1CFB685A62FB685B8DB4
:101DAC009BB2013B9AB2FB685A85FB681B8D013BC9
:101DBC009AB2FB681A85FB681B685B6903F0040325
:101DCC00042B1BD1FB681B8D002B17D0FB685B6AA7
:101DDC001A78FB681B681A61FB685B6A5A1CFB6803
:101DEC005A62FB685B8D9BB2013B9AB2FB685A85C9
:101DFC00FB681B8D013B9AB2FB681A857A69396ABC
:101E0C00F86800F0CEF90346002B0DD0FB681B6C74
:101E1C00042B07D1FB681B681A68FB681B6842F42B
:101E2C0000721A6001231AE0FB681B8D002B94D101
:101E3C00FB681B681A68FB681B6842F400721A6026
:101E4C00FB68202283F83D20FB68002283F83E20AB
:101E5C00FB68002283F83C20002300E00223184694
:101E6C001837BD4680BD00BF020010000000FFFF08
:101E7C0080B588B002AFF8607A603B600B467B811E
:101E8C00FB68DB6A7B617B69082B06D07B69012BC5
:101E9C0003D07B6913F5803F08D1FB681B681A6877
:101EAC00FB681B6842F480721A600BE0FB681B6BCA
:101EBC00122B07D1FB681B681A68FB681B6842F47D
:101ECC0080721A603B6800937B6800224FF001110E
:101EDC00F86800F04FF80346002B0DD0FB681B6828
:101EEC001B6803F48073B3F5807F03D1FB684FF458
:101EFC0000721A64032335E0FB681B69B3F5804F4D
:101F0C0008D17B89DBB21A46FB681B6802F0FE0223
:101F1C001A611BE07B89DB11DBB203F00603DBB239
:101F2C0063F00F03DAB2FB681B681A613B687A68CE
:101F3C000E49F86800F075F80346002B01D0012318
:101F4C0010E07B89DAB2FB681B681A613B687A681F
:101F5C000749F86800F065F80346002B01D001230F
:101F6C0000E0002318461837BD4680BD080001006C
:101F7C000200010080B584B000AFF860B9603B602E
:101F8C001346FB7125E03B68B3F1FF3F21D0FFF70F
:101F9C0075F90246BB69D31A3A689A4202D33B6878
:101FAC00002B16D1FB6800221A63FB68202283F8F1
:101FBC003D20FB68002283F83E20FB681B6C43F03D
:101FCC002002FB681A64FB68002283F83C20012382
:101FDC0023E0BB681B0CDBB2012B0DD1FB681B682B
:101FEC005B69DA43BB6813409BB2002B0CBF012327
:101FFC000023DBB21A460CE0FB681B689B69DA43D2
:10200C00BB6813409BB2002B0CBF01230023DBB237
:10201C001A46FB799A42B6D0002318461037BD46B3
:10202C0080BD80B584B000AFF860B9607A603B6069
:10203C0051E0FB681B685B6903F48063B3F5806F48
:10204C0023D1FB681B681A68FB681B6842F400729A
:10205C001A60FB681B686FF480625A61FB6800228F
:10206C001A63FB68202283F83D20FB68002283F86A
:10207C003E20FB681B6C43F00402FB681A64FB688F
:10208C00002283F83C20012346E07B68B3F1FF3F3C
:10209C0021D0FFF7F3F802463B68D31A7A689A42CC
:1020AC0002D37B68002B16D1FB6800221A63FB68F5
:1020BC00202283F83D20FB68002283F83E20FB6839
:1020CC001B6C43F02002FB681A64FB68002283F847
:1020DC003C20012320E0BB681B0CDBB2012B0CD194
:1020EC00FB681B685B69DA43BB6813409BB2002B2F
:1020FC0014BF01230023DBB20BE0FB681B689B6958
:10210C00DA43BB6813409BB2002B14BF012300239E
:10211C00DBB2002B8DD1002318461037BD4680BD95
:10212C0080B584B000AFF860B9607A602DE0F868D3
:10213C0000F078F80346002B01D001232DE0BB689A
:10214C00B3F1FF3F21D0FFF799F802467B68D31A11
:10215C00BA689A4202D3BB68002B16D1FB680022E6
:10216C001A63FB68202283F83D20FB68002283F869
:10217C003E20FB681B6C43F02002FB681A64FB6872
:10218C00002283F83C20012307E0FB681B685B6995
:10219C0003F08003802BCAD1002318461037BD46AC
:1021AC0080BD80B584B000AFF860B9607A602DE076
:1021BC00F86800F037F80346002B01D001232DE01E
:1021CC00BB68B3F1FF3F21D0FFF758F802467B689C
:1021DC00D31ABA689A4202D3BB68002B16D1FB689B
:1021EC0000221A63FB68202283F83D20FB68002242
:1021FC0083F83E20FB681B6C43F02002FB681A64DA
:10220C00FB68002283F83C20012307E0FB681B6875
:10221C005B6903F00403042BCAD100231846103762
:10222C00BD4680BD80B483B000AF78607B681B680E
:10223C005B6903F48063B3F5806F1BD17B681B680B
:10224C006FF480625A617B6800221A637B682022DB
:10225C0083F83D207B68002283F83E207B681B6C52
:10226C0043F004027B681A647B68002283F83C20EC
:10227C00012300E0002318460C37BD4680BC704794
:10228C0080B586B000AF78607B68002B01D101234C
:10229C0072E27B681B6803F00103002B00F087805F
:1022AC00924B5B6803F00C03042B0CD08F4B5B68D8
:1022BC0003F00C03082B12D18C4B5B6803F48033B6
:1022CC00B3F5803F0BD1894B1B6803F40033002B13
:1022DC006CD07B685B68002B68D101234CE27B6877
:1022EC005B68B3F5803F06D1804B1B687F4A43F493
:1022FC00803313602EE07B685B68002B0CD17B4B2A
:10230C001B687A4A23F480331360784B1B68774A36
:10231C0023F4802313601DE07B685B68B3F5A02F6A
:10232C000CD1724B1B68714A43F4802313606F4BC2
:10233C001B686E4A43F4803313600BE06B4B1B68D5
:10234C006A4A23F480331360684B1B68674A23F492
:10235C00802313607B685B68002B13D0FEF78EFF25
:10236C00386108E0FEF78AFF02463B69D31A642BFA
:10237C0001D9032300E25D4B1B6803F40033002BEF
:10238C00F0D014E0FEF77AFF386108E0FEF776FF34
:10239C0002463B69D31A642B01D90323ECE1534B5E
:1023AC001B6803F40033002BF0D100E000BF7B6806
:1023BC001B6803F00203002B63D04C4B5B6803F0EB
:1023CC000C03002B0BD0494B5B6803F00C03082B60
:1023DC001CD1464B5B6803F48033002B16D1434B66
:1023EC001B6803F00203002B05D07B681B69012BD3
:1023FC0001D00123C0E13D4B1B6823F0F8027B6840
:10240C005B69DB00394913430B603AE07B681B695D
:10241C00002B20D0364B01221A60FEF72FFF3861BB
:10242C0008E0FEF72BFF02463B69D31A022B01D9B9
:10243C000323A1E12D4B1B6803F00203002BF0D00A
:10244C002A4B1B6823F0F8027B685B69DB00274989
:10245C0013430B6015E0264B00221A60FEF70EFFAB
:10246C00386108E0FEF70AFF02463B69D31A022BDB
:10247C0001D9032380E11D4B1B6803F00203002BE1
:10248C00F0D17B681B6803F00803002B3AD07B6803
:10249C009B69002B19D0174B01221A60FEF7EEFE38
:1024AC00386108E0FEF7EAFE02463B69D31A022BBC
:1024BC0001D9032360E10D4B5B6A03F00203002B8F
:1024CC00F0D0012000F0D8FA1CE00A4B00221A6070
:1024DC00FEF7D4FE38610FE0FEF7D0FE02463B69F2
:1024EC00D31A022B08D9032346E100BF0010024087
:1024FC000000424280044242924B5B6A03F00203AA
:10250C00002BE9D17B681B6803F00403002B00F05F
:10251C00A6800023FB758B4BDB6903F08053002BEB
:10252C000DD1884BDB69874A43F08053D361854BCF
:10253C00DB6903F08053BB60BB680123FB75824BE6
:10254C001B6803F48073002B18D17F4B1B687E4AE9
:10255C0043F480731360FEF791FE386108E0FEF7D8
:10256C008DFE02463B69D31A642B01D9032303E188
:10257C00754B1B6803F48073002BF0D07B68DB6811
:10258C00012B06D16F4B1B6A6E4A43F00103136299
:10259C002DE07B68DB68002B0CD16A4B1B6A694A07
:1025AC0023F001031362674B1B6A664A23F0040392
:1025BC0013621CE07B68DB68052B0CD1614B1B6A3A
:1025CC00604A43F0040313625E4B1B6A5D4A43F09E
:1025DC00010313620BE05B4B1B6A5A4A23F00103A5
:1025EC001362584B1B6A574A23F0040313627B682F
:1025FC00DB68002B15D0FEF741FE38610AE0FEF7D0
:10260C003DFE02463B69D31A41F28832934201D90E
:10261C000323B1E04B4B1B6A03F00203002BEED0FB
:10262C0014E0FEF72BFE38610AE0FEF727FE0246A7
:10263C003B69D31A41F28832934201D903239BE0C0
:10264C00404B1B6A03F00203002BEED1FB7D012BE8
:10265C0005D13C4BDB693B4A23F08053D3617B684B
:10266C00DB69002B00F08780364B5B6803F00C03B2
:10267C00082B61D07B68DB69022B46D1334B0022DF
:10268C001A60FEF7FBFD386108E0FEF7F7FD024625
:10269C003B69D31A022B01D903236DE0294B1B682C
:1026AC0003F00073002BF0D17B681B6AB3F5803FFD
:1026BC0008D1244B5B6823F400327B689B6821496A
:1026CC0013434B601F4B5B6823F474127B68196ACD
:1026DC007B685B6A0B431B4913434B601B4B01220A
:1026EC001A60FEF7CBFD386108E0FEF7C7FD024625
:1026FC003B69D31A022B01D903233DE0114B1B6814
:10270C0003F00073002BF0D035E0104B00221A6060
:10271C00FEF7B4FD386108E0FEF7B0FD02463B69F8
:10272C00D31A022B01D9032326E0064B1B6803F0B6
:10273C000073002BF0D11EE07B68DB69012B07D105
:10274C00012319E00010024000700040600042427A
:10275C000B4B5B68FB60FB6803F480327B681B6A85
:10276C009A4206D1FB6803F470127B685B6A9A424A
:10277C0001D0012300E0002318461837BD4680BD68
:10278C000010024080B584B000AF786039607B687F
:10279C00002B01D10123D0E06A4B1B6803F0070327
:1027AC003A689A4210D9674B1B6823F007026549B7
:1027BC003B6813430B60634B1B6803F007033A68D9
:1027CC009A4201D00123B8E07B681B6803F0020336
:1027DC00002B20D07B681B6803F00403002B05D072
:1027EC00594B5B68584A43F4E06353607B681B6841
:1027FC0003F00803002B05D0534B5B68524A43F49B
:10280C0060535360504B5B6823F0F0027B689B680D
:10281C004D4913434B607B681B6803F00103002B8D
:10282C0040D07B685B68012B07D1474B1B6803F4D6
:10283C000033002B15D101237FE07B685B68022BF2
:10284C0007D1414B1B6803F00073002B09D1012306
:10285C0073E03D4B1B6803F00203002B01D10123F5
:10286C006BE0394B5B6823F003027B685B6836498D
:10287C0013434B60FEF702FDF8600AE0FEF7FEFC26
:10288C000246FB68D31A41F28832934201D90323E2
:10289C0053E02D4B5B6803F00C027B685B689B007C
:1028AC009A42EBD1274B1B6803F007033A689A4214
:1028BC0010D2244B1B6823F0070222493B681343B8
:1028CC000B60204B1B6803F007033A689A4201D057
:1028DC00012332E07B681B6803F00403002B08D053
:1028EC00194B5B6823F4E0627B68DB681649134381
:1028FC004B607B681B6803F00803002B09D0124B5C
:10290C005B6823F460527B681B69DB000E49134340
:10291C004B6000F021F802460B4B5B681B0903F07F
:10292C000F030A49CB5C22FA03F3094A1360094BE3
:10293C001B681846FEF760FC002318461037BD468E
:10294C0080BD00BF0020024000100240004600087D
:10295C00240000202800002090B48AB000AF294B3E
:10296C003C1D0FCB84E80F0040F201233B80002379
:10297C00FB610023BB6100237B6200237B6100238E
:10298C003B62214B5B68FB61FB6903F00C03042B7E
:10299C0002D0082B03D02BE01C4B3B622BE0FB69D5
:1029AC009B0C03F00F0328333B4413F8243C7B614E
:1029BC00FB6903F48033002B12D0134B5B685B0C68
:1029CC0003F0010328333B4413F8283CBB617B69BB
:1029DC000E4A03FB02F2BB69B2FBF3F37B6204E029
:1029EC007B690B4A02FB03F37B627B6A3B6202E06E
:1029FC00064B3B6200BF3B6A18462837BD4690BC6D
:102A0C00704700BFF04500080010024000127A0029
:102A1C0000093D0080B400AF024B1B681846BD4650
:102A2C0080BC70472400002080B500AFFFF7F2FF98
:102A3C000246054B5B681B0A03F007030349CB5C9A
:102A4C0022FA03F3184680BD00100240104600081D
:102A5C0080B500AFFFF7DEFF0246054B5B68DB0A73
:102A6C0003F007030349CB5C22FA03F3184680BD3D
:102A7C00001002401046000880B485B000AF7860AA
:102A8C000A4B1B680A4AA2FB03235B0A7A6802FB07
:102A9C0003F3FB6000BFFB685A1EFA60002BF9D1F0
:102AAC0000BF00BF1437BD4680BC70472400002017
:102ABC00D34D621080B582B000AF78607B68002B7C
:102ACC0001D1012341E07B6893F83D30DBB2002B50
:102ADC0006D17B68002283F83C207868FEF764FA04
:102AEC007B68022283F83D207B681A687B6804337C
:102AFC001946104600F062F97B68012283F84620E3
:102B0C007B68012283F83E207B68012283F83F20FA
:102B1C007B68012283F840207B68012283F84120E6
:102B2C007B68012283F842207B68012283F84320D2
:102B3C007B68012283F844207B68012283F84520BE
:102B4C007B68012283F83D20002318460837BD46D8
:102B5C0080BD000080B485B000AF78607B6893F8CE
:102B6C003D30DBB2012B01D0012332E07B68022225
:102B7C0083F83D207B681B68184A93420ED07B6813
:102B8C001B68B3F1804F09D07B681B68144A9342D1
:102B9C0004D07B681B68134A934211D17B681B6875
:102BAC009B6803F00703FB60FB68062B10D07B6867
:102BBC001B681A687B681B6842F001021A6007E008
:102BCC007B681B681A687B681B6842F001021A60FC
:102BDC00002318461437BD4680BC7047002C0140BA
:102BEC00000400400008004080B483B000AF78605F
:102BFC007B681B681A6A41F211131340002B0FD12A
:102C0C007B681B681A6A40F244431340002B07D1BF
:102C1C007B681B681A687B681B6822F001021A60CB
:102C2C007B68012283F83D20002318460C37BD46F3
:102C3C0080BC704780B584B000AF786039607B6829
:102C4C0093F83C30012B01D10223B3E07B680122C5
:102C5C0083F83C207B68022283F83D207B681B684C
:102C6C009B68FB60FB6823F07703FB60FB6823F435
:102C7C007F43FB607B681B68FA689A603B681B6843
:102C8C00B3F5005F3ED0B3F5005F00F28780B3F57B
:102C9C00805F00F08580B3F5805F7FD8702B1AD0F1
:102CAC00702B7BD8602B50D0602B77D8502B3CD01E
:102CBC00502B73D8402B58D0402B6FD8302B64D06E
:102CCC00302B6BD8202B60D0202B67D8002B5CD0FE
:102CDC00102B5AD062E07B6818683B6899683B6897
:102CEC005A683B68DB6800F042F97B681B689B689C
:102CFC00FB60FB6843F07703FB607B681B68FA683A
:102D0C009A604EE07B6818683B6899683B685A6823
:102D1C003B68DB6800F02BF97B681B689A687B6862
:102D2C001B6842F480429A603BE07B6818683B6801
:102D3C0059683B68DB681A4600F0A2F87B681B6890
:102D4C005021184600F0F9F82BE07B6818683B68B6
:102D5C0059683B68DB681A4600F0C0F87B681B6852
:102D6C006021184600F0E9F81BE07B6818683B68A6
:102D7C0059683B68DB681A4600F082F87B681B6870
:102D8C004021184600F0D9F80BE07B681A683B68C4
:102D9C001B681946104600F0D0F802E000BF00E0B6
:102DAC0000BF7B68012283F83D207B68002283F8FA
:102DBC003C20002318461037BD4680BD80B485B03A
:102DCC0000AF786039607B681B68FB607B68294AC0
:102DDC0093420BD07B68B3F1804F07D07B68264AB7
:102DEC00934203D07B68254A934208D1FB6823F0B9
:102DFC007003FB603B685B68FA681343FB607B689D
:102E0C001C4A93420BD07B68B3F1804F07D07B6890
:102E1C00194A934203D07B68184A934208D1FB6845
:102E2C0023F44073FB603B68DB68FA681343FB6078
:102E3C00FB6823F080023B685B691343FB607B6893
:102E4C00FA681A603B689A687B68DA623B681A68B1
:102E5C007B689A627B68074A934203D13B681A6984
:102E6C007B681A637B6801225A6100BF1437BD4628
:102E7C0080BC7047002C014000040040000800405A
:102E8C0080B487B000AFF860B9607A60FB681B6AE9
:102E9C007B61FB681B6A23F00102FB681A62FB680A
:102EAC009B693B613B6923F0F0033B617B681B0131
:102EBC003A6913433B617B6923F00A037B617A69AE
:102ECC00BB6813437B61FB683A699A61FB687A695A
:102EDC001A6200BF1C37BD4680BC704780B487B0F7
:102EEC0000AFF860B9607A60FB681B6A23F01002CF
:102EFC00FB681A62FB689B697B61FB681B6A3B6120
:102F0C007B6923F470437B617B681B037A691343F1
:102F1C007B613B6923F0A0033B61BB681B013A69F1
:102F2C0013433B61FB687A699A61FB683A691A62E0
:102F3C0000BF1C37BD4680BC704780B485B000AF65
:102F4C00786039607B689B68FB60FB6823F07003DA
:102F5C00FB603A68FB68134343F00703FB607B6834
:102F6C00FA689A6000BF1437BD4680BC704780B4C5
:102F7C0087B000AFF860B9607A603B60FB689B6813
:102F8C007B617B6923F47F437B613B681A027B681E
:102F9C001A43BB6813437A6913437B61FB687A69F4
:102FAC009A6000BF1C37BD4680BC704780B485B0AA
:102FBC0000AF786039607B6893F83C30012B01D10D
:102FCC00022346E07B68012283F83C207B680222C6
:102FDC0083F83D207B681B685B68FB607B681B6823
:102FEC009B68BB60FB6823F07003FB603B681B684D
:102FFC00FA681343FB607B681B68FA685A607B684D
:10300C001B68164A93420ED07B681B68B3F1804F45
:10301C0009D07B681B68124A934204D07B681B68FA
:10302C00104A93420CD1BB6823F08003BB603B6811
:10303C005B68BA681343BB607B681B68BA689A60AC
:10304C007B68012283F83D207B68002283F83C20BA
:10305C00002318461437BD4680BC7047002C014035
:10306C00000400400008004080B582B000AF7860DA
:10307C007B68002B01D101233FE07B6893F83D3046
:10308C00DBB2002B06D17B68002283F83C207868E9
:10309C00FDF7A6FF7B68242283F83D207B681B6824
:1030AC00DA687B681B6822F40052DA60786800F0FA
:1030BC0087FC7B681B681A697B681B6822F490424A
:1030CC001A617B681B685A697B681B6822F02A02AC
:1030DC005A617B681B68DA687B681B6842F4005293
:1030EC00DA607B6800221A647B68202283F83D201A
:1030FC007B68202283F83E20002318460837BD4603
:10310C0080BD80B58AB002AFF860B9603B601346F1
:10311C00FB8000237B61FB6893F83D30DBB2202BF6
:10312C007CD1BB68002B02D0FB88002B01D1012382
:10313C0075E0FB6893F83C30012B01D102236EE063
:10314C00FB68012283F83C20FB6800221A64FB68B0
:10315C00212283F83D20FEF791F87861FB68FA880C
:10316C009A84FB68FA88DA84FB689B68B3F5805F05
:10317C0008D1FB681B69002B04D10023FB61BB68E1
:10318C00BB6103E0BB68FB610023BB61FB680022F1
:10319C0083F83C202AE03B6800937B690022802165
:1031AC00F86800F038FA0346002B01D0032336E010
:1031BC00FB69002B0BD1BB691B881A46FB681B688B
:1031CC00C2F308025A60BB690233BB6107E0FB69BA
:1031DC001A78FB681B685A60FB690133FB61FB685A
:1031EC00DB8C9BB2013B9AB2FB68DA84FB68DB8C0C
:1031FC009BB2002BCFD13B6800937B69002240210E
:10320C00F86800F008FA0346002B01D0032306E00F
:10321C00FB68202283F83D20002300E0022318469F
:10322C002037BD4680BD80B584B000AFF860B96072
:10323C001346FB80FB6893F83E30DBB2202B1DD18C
:10324C00BB68002B02D0FB88002B01D1012316E0B8
:10325C00FB6893F83C30012B01D102230FE0FB6893
:10326C00012283F83C20FB6800221A63FB881A4673
:10327C00B968F86800F019FA034600E00223184612
:10328C001037BD4680BD000080B58AB000AF7860B5
:10329C007B681B681B687B627B681B68DB683B6216
:1032AC007B681B685B69FB610023BB6100237B614E
:1032BC007B6A03F00F03BB61BB69002B0DD17B6AEA
:1032CC0003F02003002B08D03B6A03F02003002BF3
:1032DC0003D0786800F0C9FA7BE1BB69002B00F0E1
:1032EC00B180FB6903F00103002B05D13B6A03F4A9
:1032FC009073002B00F0A6807B6A03F00103002B77
:10330C000AD03B6A03F48073002B05D07B681B6CDE
:10331C0043F001027B681A647B6A03F00403002B00
:10332C000AD0FB6903F00103002B05D07B681B6CF2
:10333C0043F002027B681A647B6A03F00203002BE1
:10334C000AD0FB6903F00103002B05D07B681B6CD2
:10335C0043F004027B681A647B6A03F00803002BB9
:10336C000FD03B6A03F02003002B04D1FB6903F060
:10337C000103002B05D07B681B6C43F008027B68B3
:10338C001A647B681B6C002B00F01E817B6A03F0B7
:10339C002003002B07D03B6A03F02003002B02D044
:1033AC00786800F062FA7B681B685B6903F0400385
:1033BC00002B14BF01230023DBB27B617B681B6CE9
:1033CC0003F00803002B02D17B69002B31D0786805
:1033DC0000F0A4F97B681B685B6903F04003002BC9
:1033EC0023D07B681B685A697B681B6822F04002FB
:1033FC005A617B689B6B002B13D07B689B6B764A66
:10340C005A637B689B6B1846FEF7AEF80346002B9D
:10341C0016D07B689B6B5B6B7A68926B10469847F7
:10342C000EE0786800F0E3F80AE0786800F0DFF866
:10343C0006E0786800F0DBF87B6800221A64C3E0D1
:10344C0000BFC1E07B681B6B012B40F0A1807B6A45
:10345C0003F01003002B00F09B803B6A03F0100379
:10346C00002B00F095800023FB607B681B681B68B9
:10347C00FB607B681B685B68FB60FB687B681B6898
:10348C005B6903F04003002B4ED07B689B6B1B6881
:10349C005B683B823B8A002B00F098807B689B8D9D
:1034AC003A8A9A4280F092807B683A8ADA857B6805
:1034BC009B6B9B69202B2BD07B681B68DA687B6825
:1034CC001B6822F48072DA607B681B685A697B681F
:1034DC001B6822F001025A617B681B685A697B6881
:1034EC001B6822F040025A617B68202283F83E2040
:1034FC007B6800221A637B681B68DA687B681B6830
:10350C0022F01002DA607B689B6B1846FDF7F1FF26
:10351C007B689A8D7B68DB8D9BB2D31A9BB2194664
:10352C00786800F06DF851E07B689A8D7B68DB8DD4
:10353C009BB2D31A7B827B68DB8D9BB2002B47D06E
:10354C007B8A002B44D07B681B68DA687B681B681D
:10355C0022F49072DA607B681B685A697B681B687E
:10356C0022F001025A617B68202283F83E207B689E
:10357C0000221A637B681B68DA687B681B6822F080
:10358C001002DA607B8A1946786800F039F81FE07F
:10359C007B6A03F08003002B08D03B6A03F08003A6
:1035AC00002B03D0786800F0F9F812E07B6A03F086
:1035BC004003002B0DD03B6A03F04003002B08D0D6
:1035CC00786800F03AF904E000BF02E000BF00E0C8
:1035DC0000BF2837BD4680BD8137000880B483B05A
:1035EC0000AF786000BF0C37BD4680BC704780B41C
:1035FC0083B000AF786000BF0C37BD4680BC70470D
:10360C0080B483B000AF78600B467B8000BF0C3772
:10361C00BD4680BC704780B584B000AFF860B9601F
:10362C003B601346FB712CE0BB69B3F1FF3F28D024
:10363C00BB69002B07D0FDF721FE02463B68D31A6D
:10364C00BA699A421DD2FB681B68DA68FB681B6872
:10365C0022F4D072DA60FB681B685A69FB681B683D
:10366C0022F001025A61FB68202283F83D20FB689E
:10367C00202283F83E20FB68002283F83C200323A1
:10368C000FE0FB681B681A68BB681340BA689A4263
:10369C000CBF01230023DBB21A46FB799A42C3D03C
:1036AC00002318461037BD4680BD80B485B000AFEE
:1036BC00F860B9601346FB80FB68BA689A62FB68D5
:1036CC00FA889A85FB68FA88DA85FB6800221A6406
:1036DC00FB68222283F83E20FB68002283F83C2002
:1036EC00FB681B68DA68FB681B6842F48072DA605E
:1036FC00FB681B685A69FB681B6842F001025A613F
:10370C00FB681B68DA68FB681B6842F02002DA6011
:10371C00002318461437BD4680BC704780B483B074
:10372C0000AF78607B681B68DA687B681B6822F4E2
:10373C009072DA607B681B685A697B681B6822F0A0
:10374C0001025A617B681B6B012B07D17B681B68DC
:10375C00DA687B681B6822F01002DA607B68202232
:10376C0083F83E207B6800221A6300BF0C37BD46ED
:10377C0080BC704780B584B000AF78607B685B6AB2
:10378C00FB60FB680022DA85FB680022DA84F868AB
:10379C00FFF72DFF00BF1037BD4680BD80B485B04C
:1037AC0000AF78607B6893F83D30DBB2212B3ED1C3
:1037BC007B689B68B3F5805F14D17B681B69002B19
:1037CC0010D17B681B6AFB60FB681B881A467B6800
:1037DC001B68C2F308025A607B681B6A9A1C7B68E0
:1037EC001A6208E07B681B6A591C7A6811621A78A5
:1037FC007B681B685A607B68DB8C9BB2013B9BB27D
:10380C007A681946D184002B0FD17B681B68DA6863
:10381C007B681B6822F08002DA607B681B68DA68C0
:10382C007B681B6842F04002DA60002300E0022350
:10383C0018461437BD4680BC704780B582B000AFC7
:10384C0078607B681B68DA687B681B6822F0400232
:10385C00DA607B68202283F83D207868FFF7BEFE93
:10386C00002318460837BD4680BD80B586B000AF32
:10387C0078607B6893F83E30DBB2222B40F09B8063
:10388C007B689B68B3F5805F17D17B681B69002B45
:10389C0013D100237B617B689B6A3B617B681B684F
:1038AC005B689BB2C3F308039AB23B691A807B68CE
:1038BC009B6A9A1C7B689A6226E07B689B6A7B6198
:1038CC0000233B617B689B68B3F5805F07D07B6806
:1038DC009B68002B0AD17B681B69002B06D17B6887
:1038EC001B685B68DAB27B691A7008E07B681B683E
:1038FC005B68DBB203F07F03DAB27B691A707B681A
:10390C009B6A5A1C7B689A627B689B6A023B1B7899
:10391C006F2B4ED17B689B6A013B1B786B2B48D17C
:10392C007B681B68DA687B681B6822F02002DA600F
:10393C007B681B68DA687B681B6822F48072DA602B
:10394C007B681B685A697B681B6822F001025A610C
:10395C007B68202283F83E207B681B6B012B23D1D4
:10396C007B6800221A637B681B68DA687B681B68BB
:10397C0022F01002DA607B681B681B6803F01003EE
:10398C00102B0AD10023FB607B681B681B68FB6053
:10399C007B681B685B68FB60FB687B689B8D1946CA
:1039AC007868FFF72DFE02E07868FDF729F8002310
:1039BC0002E0002300E0022318461837BD4680BD04
:1039CC0080B584B000AF78607B681B681B6923F4FA
:1039DC0040517B68DA687B681B680A431A617B6814
:1039EC009A687B681B691A437B685B691343BB60ED
:1039FC007B681B68DB6823F4B05323F00C037A68F4
:103A0C001268B9680B43D3607B681B685B6923F44D
:103A1C0040717B689A697B681B680A435A617B68B2
:103A2C001B682C4A934203D1FFF712F8F86002E0AE
:103A3C00FEF7FAFFF860FA6813469B0013449A00ED
:103A4C001A447B685B689B00B2FBF3F3224AA2FB2F
:103A5C0003235B091901FA6813469B0013449A006F
:103A6C001A447B685B689B00B2FBF3F21A4BA3FB16
:103A7C0002035B09642000FB03F3D31A1B013233EE
:103A8C00154AA2FB03235B0903F0F0031944FA68FF
:103A9C0013469B0013449A001A447B685B689B0096
:103AAC00B2FBF3F20C4BA3FB02035B09642000FB9B
:103ABC0003F3D31A1B013233074AA2FB03235B091E
:103ACC0003F00F027B681B680A449A6000BF103732
:103ADC00BD4680BD003801401F85EB510A220021F4
:103AEC0000F0E2B8014B1868704700BF30000020AE
:103AFC0070B500260C4D0D4C641BA410A64209D1C8
:103B0C0000F036FD00260A4D0A4C641BA410A64298
:103B1C0005D170BD55F8043B98470136EEE755F8D2
:103B2C00043B98470136F2E74C4700084C47000825
:103B3C004C4700085047000803460244934200D10A
:103B4C00704703F8011BF9E70EB46FF0004100B5A4
:103B5C009CB01DAB0290069007910491084809494E
:103B6C0053F8042B0591006802A9019300F002F9A7
:103B7C000022029B1A701CB05DF804EB03B0704776
:103B8C00300000200802FFFF034610B5013932B1A6
:103B9C0011F8014F013A03F8014B002CF7D1002129
:103BAC001A44934200D110BD03F8011BF9E7000041
:103BBC00012B2DE9F047804601D0242B06D9FFF7C5
:103BCC0091FF162303600020BDE8F0870D46354FAA
:103BDC00284615F8014BE65D16F00806F8D12D2C99
:103BEC002FD101262C78851C002B57D0102B09D1F6
:103BFC00302C07D1287800F0DF00582849D1102349
:103C0C006C780235002706F1004E0EF1FF3EBEFB2C
:103C1C00F3F9384603FB19EAA4F1300CBCF1090F97
:103C2C0014D86446A34222DD002F1DDB81451BD333
:103C3C0001D1A24518DB012700FB034015F8014B0D
:103C4C00EAE72B2C04BF2C78851CCDE7A4F1410CA2
:103C5C00BCF1190F01D8373CE4E7A4F1610CBCF1BD
:103C6C00190F04D8573CDDE74FF0FF37E6E7002F7C
:103C7C0007DA22237046C8F80030002AA4D0691E47
:103C8C0005E006B14042002A9ED0002FF7D111600A
:103C9C009AE73024002BB5D10823B3E7302CA9D0F8
:103CAC000A23AFE71946000813460A4601460248A4
:103CBC000068FFF77DBF00BF300000202DE9F04702
:103CCC008E6882469E420C4690461F4638D88A899A
:103CDC0012F4906F32D0256809690133A5EB010904
:103CEC0065694B4405EB450505EBD5756D109D429B
:103CFC0038BF1D46530531D5294600F06FFB0646EB
:103D0C0050B90C234FF0FF30CAF80030A38943F0B0
:103D1C004003A381BDE8F0874A46216900F0CEFA42
:103D2C00A38923F4906343F08003A38126614E445E
:103D3C0026603E466561A5EB0905A560BE4200D92B
:103D4C003E4632464146206800F0C6FAA368002081
:103D5C009B1BA360236833442360DBE72A4600F0F7
:103D6C00B1FB06460028E1D15046216900F0CEFA9D
:103D7C00C7E700002DE9F04F98468B8907461B06D4
:103D8C000D4614469DB00ED50B6963B9402100F069
:103D9C0025FB2860286120B90C233B604FF0FF30D5
:103DAC00D1E040236B610023099320238DF8293047
:103DBC0030234FF00109CDF80C80DFF8A4818DF889
:103DCC002A3023469A4613F8012B0AB1252AF9D139
:103DDC00BAEB040B0BD05B46224629463846FFF75C
:103DEC006DFF013000F0AA80099A5A4409929AF8A2
:103DFC000030002B00F0A28000234FF0FF32CDE901
:103E0C0005230AF1010A049307938DF853301A9392
:103E1C005446052214F8011B514800F041FA049A4B
:103E2C00D8B9D00644BF20238DF85330110744BFB6
:103E3C002B238DF853309AF800302A2B15D054468A
:103E4C0000204FF00A0C079A214611F8013B303B39
:103E5C00092B4ED9B0B1079214E0A0EB080309FA74
:103E6C0003F31343A2460493D2E7039B191D1B686B
:103E7C000391002BBBBF5B4242F0020207930793F6
:103E8C00B8BF049223782E2B0CD163782A2B35D112
:103E9C00039B02341A1D1B680392002BB8BF4FF012
:103EAC00FF330593DFF8BCA003225046217800F0C5
:103EBC00F7F940B14023A0EB0A0003FA00F0049B91
:103ECC0001340343049314F8011B062226488DF891
:103EDC00281000F0E5F9002838D0244B1BBB039BBD
:103EEC00073323F0070308330393099B33440993E7
:103EFC0067E70C4601200CFB0232A5E700234FF0CC
:103F0C000A0C194601340593204610F8012B303A5F
:103F1C00092A03D9002BC5D00591C3E70446012318
:103F2C000CFB0121F0E703AB00932A463846104BFB
:103F3C0004A9AFF30080421C0646D6D1AB895B06C0
:103F4C003FF52CAF09981DB0BDE8F08F03AB009383
:103F5C002A463846064B04A900F07CF8EBE700BF74
:103F6C00194700081F4700082347000800000000FD
:103F7C00C93C00082DE9F047164699468A680B693A
:103F8C0007469342B8BF1346336091F843200C4662
:103F9C00DDF820800AB1013333602368990642BFF3
:103FAC00336802333360256815F0060506D104F139
:103FBC00190AE36832689B1AAB4228DC94F8432058
:103FCC00131E226818BF012392062DD44946384689
:103FDC0004F14302C047013020D02368E56803F0A8
:103FEC000603042B18BF002532684FF00006A368A7
:103FFC0008BFAD1A226908BF25EAE5759342C4BF14
:10400C009B1AED181A34B5421AD1002008E001238E
:10401C00524649463846C047013003D14FF0FF3075
:10402C00BDE8F0870135C4E73020E11881F8430082
:10403C005A1C94F845102244023382F84310C5E709
:10404C000123224649463846C0470130E6D00136A6
:10405C00D9E700002DE9FF470F7E9146782F804667
:10406C000C469A460C9D01F1430207D8622F0AD8E0
:10407C00002F00F0D980582F00F0A48004F14205E5
:10408C0084F842703AE0A7F16303152BF6D801A12E
:10409C0051F823F0F94000080D4100088940000850
:1040AC008940000889400008894000080D4100083B
:1040BC0089400008894000088940000889400008B0
:1040CC001B4200083D410008FD41000889400008E2
:1040DC00894000083D420008894000083D41000825
:1040EC008940000889400008054200082B681A1D09
:1040FC001B682A6004F1420584F842300123A4E0D5
:10410C0020682968060601F104030AD50E682B60A5
:10411C00002E03DA2D23764284F843300A235E48BE
:10412C0019E00E6810F0400F2B6018BF36B2EFE7A5
:10413C002B682068191D2960010601D51E6802E054
:10414C004606FBD51E886F2F0CBF08230A23524846
:10415C00002184F843106568002DA8BF2168A56074
:10416C00A4BF21F0040121600EB9002D4DD01546DD
:10417C00B6FBF3F103FB1167C75D05F8017D37460C
:10418C00BB420E46F4D9082B0BD12368DE0708D5A9
:10419C00236961689942DEBF302305F8013C05F1C3
:1041AC00FF35521B22614B4621464046CDF800A0FC
:1041BC0003AAFFF7DFFE01304CD14FF0FF3004B003
:1041CC00BDE8F087344881F845702968236851F8B8
:1041DC00046B29601D0614D5DF0744BF43F0200390
:1041EC0023601EB9236823F0200323601023AFE75C
:1041FC00236843F0200323607823284884F8453053
:10420C00E3E7590648BFB6B2E6E71546BBE72B68AD
:10421C002668181D6169286035061B6801D5196070
:10422C0002E07006FBD51980002315462361BAE71E
:10423C002B6800211A1D2A601D686268284600F050
:10424C002FF808B1401B606063682361002384F879
:10425C004330A8E72A46494640462369D0470130F7
:10426C00ABD023689B0713D4E068039B9842B8BF7C
:10427C001846A4E70123324649464046D047013050
:10428C009BD00135E36803995B1AAB42F2DCEBE798
:10429C00002504F11906F5E72A4700083B470008FA
:1042AC00034610B5C9B202449342184601D100200E
:1042BC0003E0047801338C42F6D110BD0A449142DC
:1042CC0000F1FF3300D1704710B511F8014B91424A
:1042DC0003F8014FF9D110BD884210B501EB02046F
:1042EC0002D98442234607D8431EA14208D011F8B4
:1042FC00012B03F8012FF8E7014602448A4200D152
:10430C0010BD13F8014D02F8014DF7E738B505461D
:10431C00002940D051F8043C0C1F002BB8BFE41806
:10432C0000F010F91C4A136833B963601460284616
:10433C00BDE8384000F00CB9A34208D92068211818
:10434C008B4201BF19685B6809182160EDE71A46BA
:10435C005B680BB1A342FAD911685018A0420BD17B
:10436C0020680144501883421160E0D118685B68E2
:10437C00014411605360DAE702D90C232B60D6E7B5
:10438C00206821188B4201BF19685B6809182160ED
:10439C0063605460CBE738BDCC01002070B50E4E85
:1043AC000C463168054611B900F0BCF83060214666
:1043BC00284600F0B7F8431C0AD0C41C24F00304B0
:1043CC00A04207D0211A284600F0ACF8013001D1E8
:1043DC004FF0FF34204670BDD00100202DE9F04194
:1043EC00CD1C25F0030508350C2D38BF0C25002DF0
:1043FC00074601DBA94205D90C2300263B60304659
:10440C00BDE8F0812E4E00F09DF833681C4634BB9D
:10441C0029463846FFF7C2FF431C04464DD1346889
:10442C002646002E40D123683146384604EB03085B
:10443C0000F078F880453AD1216803356D1A25F0E3
:10444C00030508350C2D38BF0C2538462946FFF7D7
:10445C00A5FF01302BD023682B4423600EE022688B
:10446C00521B1ED40B2A16D96119A342256018BF02
:10447C005960636808BF316062514B60384604F183
:10448C000B0600F065F826F00706231DF21AB6D0CD
:10449C009B1BA350B3E76268A3420CBF32605A6007
:1044AC00ECE723466468B2E734467668B9E70C2338
:1044BC0038463B6000F04CF8A1E72560DEE700BF12
:1044CC00CC0100202DE9F041804614460E4621B95E
:1044DC001146BDE8F041FFF781BF2AB9FFF716FF7F
:1044EC0025462846BDE8F08100F038F8844207469E
:1044FC0002D8B4EB500F12D821464046FFF76EFF9E
:10450C0005460028EDD0BC422246314628BF3A462B
:10451C00FFF7D4FE31464046FFF7F8FEE1E735469B
:10452C00DFE7000038B50023054D044608462B6034
:10453C00FCF7EAFD431C02D12B6803B1236038BDA4
:10454C00D4010020014800F011B800BFD8010020B0
:10455C00014800F00CB800BFD801002051F8043C11
:10456C00181F002BBCBF0B58C01870477047704702
:10457C00F8B500BFF8BC08BC9E467047F8B500BF44
:08458C00F8BC08BC9E46704714
:10459400000000006E6869657420646F20000000EC
:1045A400646F20616D2000004D6F64653A31000036
:1045B400204379636C653A00256400002044413A45
:1045C400000000004D6F64653A3200004E68696572
:1045D4007420646F3A00000020446F20616D3A003B
:1045E4000A000000446F20616D3A000002030405D4
:1045F400060708090A0B0C0D0E0F1010000000002E
:10460400000000000102030406070809000000007E
:10461400010203040020202020202020202028281C
:10462400282828202020202020202020202020206E
:1046340020202020208810101010101010101010AE
:1046440010101010100404040404040404040410DE
:10465400101010101010414141414141010101016C
:104664000101010101010101010101010101010136
:104674001010101010104242424242420202020242
:104684000202020202020202020202020202020206
:1046940010101010200000000000000000000000B6
:1046A4000000000000000000000000000000000006
:1046B40000000000000000000000000000000000F6
:1046C40000000000000000000000000000000000E6
:1046D40000000000000000000000000000000000D6
:1046E40000000000000000000000000000000000C6
:1046F40000000000000000000000000000000000B6
:1047040000000000000000000000000000000000A5
:104714000000000000232D302B2000686C4C006545
:1047240066674546470030313233343536373839D9
:10473400414243444546003031323334353637380C
:084744003961626364656600DF
:04474C00310100082F
:044750000D0100084F
:104754006D6E00000000000000000000000000007A
:104764000000000002000000010000000100000041
:10477400010000000024F40010000000010000000B
:1047840034000020000000000000000000000000D1
:104794000000000000000000000000000000000015
:1047A4000000000000000000000000000000000005
:1047B40000000000000000000000000000000000F5
:1047C40000000000000000000000000000000000E5
:1047D40000000000000000000000000000000000D5
:0447E40000000000D1
:040000050800118D51
:00000001FF
